:030000000209767C
:0C097600787FE4F6D8FD75811B0209BDF6
:100A6C0050617373776F72643A2000444F4F522079
:100A7C00554E4C4F434B4544210057454C434F4D2D
:100A8C00452100444F4F52204C4F434B45442100CD
:0F0A9C00494E434F52524543542050494E21007A
:0C0B5400060D313233343500021300006E
:0F0A02007F0F120B307F38120B307F01120B3039
:100A1100E4F515F5167F80120B307BFF7A0A796CAD
:100A2100120AAB7FE87E03120B107FC0120B3074E9
:100A31000D2516F8E6602F1208C5AE1674082EF8BB
:100A4100A607EE24C0FF120B307FE87E03120B10C5
:100A51007F2A120B427FE87E03120B100516E51662
:090A610070CD051580C9120800D2
:020A6A0080A565
:070B6100D2B2D2B1D2B022E2
:070B0900120B427F647E0025
:100B1000E4FDFCC3ED9FEC9E5015E4FBFA0BBB001B
:0F0B2000010AEB640A4A70F50DBD00010C80E478
:010B2F0022A3
:100B30008F90C2B5C2B6D2B77FE87E03120B10C247
:020B4000B722DA
:100B42008F90D2B5C2B6D2B77FE87E03120B10C225
:020B5200B722C8
:060AAB008B178A1889195F
:100AB100E4F51AF51BAB17AA18A919851B82851A2B
:100AC10083120ADCFF600D120B42051BE51B70E56A
:0B0AD100051A80E17F107E27020B1049
:1008C500E4FFFEEF4E6003020975C2A0D2A1D2A2D9
:1008D500D2A320B0087F31120B097F312220B10845
:1008E5007F32120B097F322220B2087F33120B09A7
:1008F5007F3322D2A0C2A1D2A2D2A320B0087F34D6
:10090500120B097F342220B1087F35120B097F3580
:100915002220B2087F36120B097F3622D2A0D2A13F
:10092500C2A2D2A320B0087F37120B097F3722203D
:10093500B0087F38120B097F382220B0087F3912A2
:100945000B097F3922D2A0D2A1D2A2C2A320B0081E
:100955007F2A120B097F2A2220B1087F30120B094A
:100965007F302230B2030208C87F23120B097F2390
:01097500225F
:10080000E50D650860030208A5E50E6509600302B1
:1008100008A5E50F650A60030208A5E510650B60F1
:10082000030208A5E511650C707B7FE87E03120BBF
:10083000107F01120B307F81120B30E514451370CD
:100840003A7BFF7A0A7977120AAB7FE87E03120BB4
:1008500010D2B3C2B47FC1120B307BFF7A0A798603
:10086000120AAB7FA07E86120B10D2B3C2B47F01F6
:10087000120B307513007514018027D2B3D2B47FE8
:1008800081120B307BFF7A0A798F120AAB7FA07E30
:1008900086120B10D2B3D2B47F01120B30E4F513E1
:1008A000F514020B617F01120B307F80120B307B3D
:1008B000FF7A0A799C120AAB7F407E42120B107FAE
:0508C00001120B3022C3
:10098200020A02E493A3F8E493A34003F68001F27F
:1009920008DFF48029E493A3F85407240CC8C33376
:1009A200C4540F4420C8834004F456800146F6DF45
:1009B200E4800B0102040810204080900B54E47E76
:1009C200019360BCA3FF543F30E509541FFEE4933A
:1009D200A360010ECF54C025E060A840B8E493A301
:1009E200FAE493A3F8E493A3C8C582C8CAC583CA2C
:1009F200F0A3C8C582C8CAC583CADFE9DEE780BEE4
:010B60000094
:100ADC00BB010CE58229F582E5833AF583E02250CF
:100AEC0006E92582F8E622BBFE06E92582F8E22219
:0D0AFC00E58229F582E5833AF583E4932233
:00000001FF
