:03000000020A549D
:0C0A5400787FE4F6D8FD75811F020A9B34
:100B57004143434553532044454E494544210050A2
:100B6700617373776F72643A2000444F4F52204C81
:100B77004F434B45442100444F4F5220554E4C4F55
:100B8700434B4544210057454C434F4D45210049B0
:0E0B97004E434F52524543542050494E2100C8
:100C2A00060F313233343500021500000208000085
:0F0800007F0F120C067F38120C067F01120C06B8
:0D080F00E4F517F518E50964034508704687
:10081C007F80120C067BFF7A0B7957120BA5E4F53F
:10082C0019F51AC3E51A9464E5196480948050D3C1
:10083C00AE19AF1A7C007D02120918ED4C7004C27F
:10084C00A58002D2A57FE87E03120BDD051AE51AFE
:06085C0070D1051980CDEA
:10086200E516451570507F80120C067BFF7A0B79D6
:1008720066120BA57FE87E03120BDD7FC0120C0609
:10088200740F2518F8E6602B1209A3AE18740A2E0D
:10089200F8A607EE24C0FF120C067FE87E03120BB7
:1008A200DD7F2A120C18120BD90518E51870D10534
:1008B2001780CD120AE020A40302080FD2B3D2B4EB
:1008C2007F01120C067F81120C067BFF7A0B797175
:1008D200120BA5120BD9D2B3D2B47F01120C06C2ED
:0608E200A4E4F515F51673
:0308E80002080FF4
:070C3B00D2B2D2B1D2B02207
:070BD600120C187F647E0081
:100BDD00E4FDFCC3ED9FEC9E5015E4FBFA0BBB004E
:0F0BED00010AEB640A4A70F50DBD00010C80E4AB
:010BFC0022D6
:090BFD007FE87E03120BDD7F018D
:100C06008F90C2B5C2B6D2B77FE87E03120BDDC2A3
:020C1600B72203
:100C18008F90D2B5C2B6D2B77FE87E03120BDDC281
:020C2800B722F1
:060BA5008B1B8A1C891D58
:100BAB00E4F51EF51FAB1BAA1CA91D851F82851E14
:100BBB00831208EBFF600D120C18051FE51F70E583
:0B0BCB00051E80E17F107E27020BDD7D
:1009A300E4FFFEEF4E6003020A53C2A0D2A1D2A21B
:1009B300D2A320B0087F31120BD67F312220B10899
:1009C3007F32120BD67F322220B2087F33120BD62E
:1009D3007F3322D2A0C2A1D2A2D2A320B0087F34F7
:1009E300120BD67F342220B1087F35120BD67F3508
:1009F3002220B2087F36120BD67F3622D2A0D2A194
:100A0300C2A2D2A320B0087F37120BD67F37222091
:100A1300B1087F38120BD67F382220B2087F3912F3
:100A23000BD67F3922D2A0D2A1D2A2C2A320B00872
:100A33007F2A120BD67F2A2220B1087F30120BD6D1
:100A43007F302230B2030209A67F23120BD67F2305
:010A53002280
:100AE000E50F650A7052E510650B704CE511650C59
:100AF0007046E512650D7040E513650E703A120BF5
:100B0000FD7F81120C067BFF7A0B797E120BA512FA
:100B10000BFDD2B3C2B47F81120C067BFF7A0B7936
:100B20008D120BA57FA07E86120BDDD2B3C2B475E9
:100B30001500751601020C3B7F01120C067F801216
:100B40000C067BFF7A0B7996120BA5120BFD05099B
:070B5000E50970020508220F
:100A6000020800E493A3F8E493A34003F68001F2A4
:100A700008DFF48029E493A3F85407240CC8C33397
:100A8000C4540F4420C8834004F456800146F6DF66
:100A9000E4800B0102040810204080900C2AE47EC0
:100AA000019360BCA3FF543F30E509541FFEE4935B
:100AB000A360010ECF54C025E060A840B8E493A322
:100AC000FAE493A3F8E493A3C8C582C8CAC583CA4D
:100AD000F0A3C8C582C8CAC583CADFE9DEE780BE05
:010C3A0000B9
:1008EB00BB010CE58229F582E5833AF583E02250C2
:1008FB0006E92582F8E622BBFE06E92582F8E2220C
:0D090B00E58229F582E5833AF583E4932225
:10091800C2D5EC30E709B2D5E4C39DFDE49CFCEEFA
:1009280030E715B2D5E4C39FFFE49EFE12094EC31B
:10093800E49DFDE49CFC800312094E30D507C3E416
:060948009FFFE49EFE2269
:10094E00BC000BBE0029EF8DF084FFADF022E4CC8D
:10095E00F875F008EF2FFFEE33FEEC33FCEE9DEC56
:10096E00984005FCEE9DFE0FD5F0E9E4CEFD22ED9C
:10097E00F8F5F0EE8420D21CFEADF075F008EF2FE6
:10098E00FFED33FD4007985006D5F0F222C398FDD7
:05099E000FD5F0EA2274
:00000001FF
